:10019600010C00020A0000010E00010D0002080019
:0101A6000058
:03000B0002009A56
:10009A00C0E0C0F0C083C082C0D075D000C000C02C
:0D00AA0001C002C003C004C005C006C007AD
:1000B700758ACD758CD40509E50970020508AE0867
:1000C700FFE4FCFD7B607AEAF9F8D3120180500D5A
:0D00D700750800750900750E01C28CC2A9E4
:1000E400D007D006D005D004D003D002D001D00070
:0B00F400D0D0D082D083D0F0D0E0321A
:10016800438E805389F0438901758ACD758CD4C23A
:080178008DC28CC2A9D2AF2296
:0D01A80053CAEF53C9EF43B20853B1F72219
:10014800E4FDFCC3ED9FEC9E5015E4FBFA0BBB00ED
:0F015800010ABA04F8BBFBF50DBD00010C80E4F1
:010167002275
:0E00FF001201681201A8C2B3A2CCE433F50DC1
:10010D00A2CCE433F50FB40117E50D7013E50C70B7
:10011D000F750C01D2B3F50AF50BF50ED2A9D28CE1
:10012D00E50E600BC2B3E4F50CF50EC2A9C28C85C9
:09013D000F0D7F0A7E001201483B
:0201460080C572
:0300000002000EED
:0C000E00787FE4F6D8FD75810F020055E4
:10018000EB9FF5F0EA9E42F0E99D42F0EC6480C8F6
:0601900064809845F02296
:10001A000200FFE493A3F8E493A34003F68001F2FD
:10002A0008DFF48029E493A3F85407240CC8C333E7
:10003A00C4540F4420C8834004F456800146F6DFB6
:10004A00E4800B0102040810204080900196E47EAF
:10005A00019360BCA3FF543F30E509541FFEE493AB
:10006A00A360010ECF54C025E060A840B8E493A372
:10007A00FAE493A3F8E493A3C8C582C8CAC583CA9D
:10008A00F0A3C8C582C8CAC583CADFE9DEE780BE55
:0101A7000057
:00000001FF
