:0D018E00010A0002080000010C00010B0036
:03000B0002009A56
:10009A00C0E0C0F0C083C082C0D075D000C000C02C
:1000AA0001C002C003C004C005C006C007758ACDDE
:1000BA00758CD40509E50970020508AE08FFE4FC51
:1000CA00FD7B607AEAF9F8D31201785007750C01C2
:1000DA00C28CC2A9D007D006D005D004D003D00262
:0F00EA00D001D000D0D0D082D083D0F0D0E0327F
:10016000438E805389F0438901758ACD758CD4C242
:080170008DC28CC2A9D2AF229E
:0D019C0053CAEF53C9EF43B20853B1F72225
:10014000E4FDFCC3ED9FEC9E5015E4FBFA0BBB00F5
:0F015000010ABA04F8BBFBF50DBD00010C80E4F9
:01015F00227D
:0E00F90012016012019CC2B3A2CCE433F50BDD
:10010700A2CCE433F50DB40111E50B700DF508F53C
:1001170009750A01D2B3D28CD2A9E50C600FC2B31C
:10012700E4F50AF50CC28CC2A9F508F509850D0B93
:070137007F0A7E0012014067
:02013E0080C778
:0300000002000EED
:0C000E00787FE4F6D8FD75810D020055E6
:10017800EB9FF5F0EA9E42F0E99D42F0EC6480C8FE
:0601880064809845F0229E
:10001A000200F9E493A3F8E493A34003F68001F203
:10002A0008DFF48029E493A3F85407240CC8C333E7
:10003A00C4540F4420C8834004F456800146F6DFB6
:10004A00E4800B010204081020408090018EE47EB7
:10005A00019360BCA3FF543F30E509541FFEE493AB
:10006A00A360010ECF54C025E060A840B8E493A372
:10007A00FAE493A3F8E493A3C8C582C8CAC583CA9D
:10008A00F0A3C8C582C8CAC583CADFE9DEE780BE55
:01019B000063
:00000001FF
