:1001BE00010C00020A0000010F00010D00010E00EB
:0401CE000208000023
:03000B0002010BE4
:10010B00C0E0C0F0C083C082C0D075D000C000C0BA
:0D011B0001C002C003C004C005C006C0073B
:10012800758ACD758CD40509E50970020508AE08F5
:10013800FFE4FCFD7B607AEAF9F8D31201A8500DC0
:0D014800750800750900750F01C28CC2A971
:10015500D007D006D005D004D003D002D001D000FE
:0B016500D0D0D082D083D0F0D0E032A8
:10019000438E805389F0438901758ACD758CD4C212
:0801A0008DC28CC2A9D2AF226E
:0D01D30053CAEF53C9EF43B20853B1F722EE
:10017000E4FDFCC3ED9FEC9E5015E4FBFA0BBB00C5
:0F018000010ABA04F8BBFBF50DBD00010C80E4C9
:01018F00224D
:0E009A001201901201D3C2B3A2CCE433F50DD3
:1000A800A2CCE433F51064017024E50D7020E50C52
:1000B8007014750C01750E01D2B3F50AF50BF50F26
:1000C800D2A9D28C8008750E01E4F50AF50BE50F6C
:1000D8006010E50E700CC2B3F50CF50FF50EC2A951
:1000E800C28CE50F6011E50E600DE4F50EF50AF51A
:1000F8000BF50FD2A9D28C85100D7F0A7E00120154
:010108007086
:02010900809DD7
:0300000002000EED
:0C000E00787FE4F6D8FD758110020055E3
:1001A800EB9FF5F0EA9E42F0E99D42F0EC6480C8CE
:0601B80064809845F0226E
:10001A0002009AE493A3F8E493A34003F68001F262
:10002A0008DFF48029E493A3F85407240CC8C333E7
:10003A00C4540F4420C8834004F456800146F6DFB6
:10004A00E4800B01020408102040809001BEE47E87
:10005A00019360BCA3FF543F30E509541FFEE493AB
:10006A00A360010ECF54C025E060A840B8E493A372
:10007A00FAE493A3F8E493A3C8C582C8CAC583CA9D
:10008A00F0A3C8C582C8CAC583CADFE9DEE780BE55
:0101D200002C
:00000001FF
